:020000040800F2
:1000000068560020C10100083F120008C502000820
:100010003D1200089F040008F914000800000000C9
:100020000000000000000000000000004112000875
:10003000A104000800000000130200084312000899
:10004000DB010008DB010008DB010008DB01000820
:10005000DB010008DB010008DB010008DB01000810
:10006000DB010008DB010008DB010008DB01000800
:10007000DB010008DB010008DB010008DB010008F0
:10008000DB010008DB010008DB010008DB010008E0
:10009000DB010008DB010008DB010008DB010008D0
:1000A000DB010008DB010008DB010008DB010008C0
:1000B000DB010008DB010008DB010008DB010008B0
:1000C000DB010008DB010008DB010008DB010008A0
:1000D000DB010008DB010008DB010008DB01000890
:1000E000DB010008DB010008DB010008DB01000880
:1000F000DB010008DB010008DB010008DB01000870
:10010000DB010008DB010008DB010008DB0100085F
:10011000DB010008DB010008DB010008DB0100084F
:10012000DB010008DB010008DB010008DB0100083F
:10013000DB010008DB010008DB010008DB0100082F
:10014000DB010008DB010008DB010008DB0100081F
:10015000DB010008DB010008DB010008DB0100080F
:10016000DB010008DB010008DB010008DB010008FF
:10017000DB010008DB010008DB01000800000000D3
:10018000DB010008DB010008DB010008DB010008DF
:10019000DB010008DB010008DB010008DB010008CF
:1001A0000000000000000000DB010008DFF80CD0B8
:1001B00000F05EF9004800479504000868560020EA
:1001C0000648804706480047FEE7FEE7FEE7FEE7F1
:1001D000FEE7FEE7FEE7FEE7FEE7FEE76513000841
:1001E000AD010008EFF3108072B6704780F31088FD
:1001F0007047424A1368012B04D04FF0010313608B
:100200003F4A10603F4A11603F484FF08051016003
:100210007047EFF3108272B63848016851B34FF05F
:10022000000101603648016891B1EFF309811EF0C9
:10023000100F08BF21ED108B21E9F00F4FF00004E3
:100240001EF0100F08BF012441F8044D0068016042
:100250002C490968096808C9B1E8F00F002B18BFDC
:10026000B1EC108B81F309884EF0100E002B18BFF3
:100270002EF0100E82F310884EF0040E70472149C4
:100280000860EFF3148222F0040282F314881C4900
:100290004FF00000086019494FF0010008601B484A
:1002A0001B49D0F8002041EA0201016016484FF0D6
:1002B0008051016017480068006880F3088861B6C3
:1002C00062B670471EF0040F0CBFEFF30880EFF327
:1002D000098020E9F00F40F804ED40F804ED1EF02D
:1002E000040F0CBF80F3088880F3098800B502F082
:1002F000FFFB5DF804EB4EF0040E70472000002079
:10030000180000201C00002004ED00E020ED00E0BB
:100310000000FFFF08ED00E02DE9F05F054600203A
:1003200092469B4688460646814640241BE0284666
:1003300041464746224600F08AF853465A46C01ABC
:10034000914110D311461846224600F071F82D1A3B
:1003500067EB01084F4622460120002100F068F8B3
:1003600017EB00094E41201EA4F10104DFDC4846D2
:1003700031462A464346BDE8F09F40EA01039B0709
:1003800003D009E008C9121F08C0042AFAD203E00A
:1003900011F8013B00F8013B521EF9D27047D2B26E
:1003A00001E000F8012B491EFBD270470022F6E75E
:1003B00010B513460A4604461946FFF7F0FF2046DB
:1003C00010BD421E12F8013F002BFBD111F8013B7A
:1003D00002F8013B002BF9D1704710B5044604E048
:1003E0000B7800F8013B03B1491C521EF8D220469D
:1003F00010BD421C10F8011B0029FBD1801A704768
:10040000034611F8012B00F8012B002AF9D11846F8
:10041000704730B505460020034600E05B1C934260
:1004200005D2EC5CC85C201A01D1002CF6D130BD9D
:10043000202A04DB203A00FA02F1002070479140A4
:10044000C2F1200320FA03F3194390407047202A99
:1004500004DB203A21FA02F00021704721FA02F36E
:10046000D040C2F120029140084319467047000075
:10047000064C074D06E0E06840F0010394E80700F1
:1004800098471034AC42F6D3FFF794FE9842000828
:10049000B842000810B503F0FDFB002010BDFEE7D8
:1004A000704772B6FEE700002DE9F84FDFF8F8A1BB
:1004B000002201240AF1040B03254FF00F090BF170
:1004C000040E00BF0B6804FA02F63340B34270D149
:1004D0000F7907F00307012F01D0022F16D187688B
:1004E0004FEA420805FA08FC27EA0C07D1F80CC0CD
:1004F0000CFA08FC4CEA070CC0F808C04768B74380
:100500000E79C6F3001696403E4346600E79F643D8
:10051000B6070AD0C7684FEA420C05FA0CF6B74393
:100520008E6806FA0CF63E43C6600E7906F00306A6
:10053000022E10D1D60800EB8608D8F820605707A5
:100540004FEAD76C09FA0CF7BE430F6907FA0CF7AC
:100550003743C8F8207006684FEA420C05FA0CF7DA
:10056000BE430F7907F0030707FA0CF7374307601C
:100570004E6816F4403F1CD04C4E376847F4804715
:100580003760366822F0030706F480460096484E2E
:1005900007EB060CDCF8086897073F0F09FA07F825
:1005A00026EA0806DFF80C81404503D14FF0000829
:1005B00041E072E0DFF80081404502D14FF00108D0
:1005C00039E0DFF8F880404502D14FF0020832E010
:1005D000DFF8EC80404502D14FF003082BE0DFF854
:1005E000E480404502D14FF0040824E0DFF8D880D1
:1005F000404502D14FF005081DE0DFF8D0804045AE
:1006000002D14FF0060816E0DFF8C480404502D161
:100610004FF007080FE0DFF8BC80404502D14FF0F3
:10062000080808E0DFF8B080404502D14FF0090823
:1006300001E04FF00A0808FA07F848EA0608CCF883
:100640000888DAF800605746D1F804C09E435FEA94
:10065000CC3C00D51E433E60DBF800605F46D1F81D
:1006600004C09E435FEA8C3C00D51E433E60DEF82A
:1006700000607746D1F804C09E435FEACC2C00D5D9
:100680001E433E60084F0C373E68D1F804C09E43BD
:100690005FEA8C2C00D51E433E60521C102AFFF4EA
:1006A00011AFBDE8F88F0000003C01404438024023
:1006B00000300140000002400004024000080240F7
:1006C000000C0240001002400014024000180240DA
:1006D000001C024000200240002402400AB1816157
:1006E00070470904FBE7000001488068704700007C
:1006F000000000200B4810B5016841F40071016052
:10070000016841F480610160016841F48071016019
:10071000032000F061F80F2000F006F800F024F844
:10072000002010BD003C024070B50D4D04464FF452
:100730007A712878B1FBF0F00A490968B1FBF0F052
:1007400000F0CAFB48B9102C07D200222146501EE7
:1007500000F022F800206C6070BD012070BD000028
:10076000000000200C0000200A4808B5016841F490
:1007700080410160006800F4804000900548001F3F
:10078000016841F080510160006800F080500090E5
:1007900008BD000044380240F0B40E4B1B680C4604
:1007A000C3F30223C3F10705042D00D90425191D45
:1007B000072901D2002300E0DB1E012606FA05F11D
:1007C000491E214099409E40761E16403143F0BCA0
:1007D00000F093BE0CED00E0064900F00702086847
:1007E0004FF6FF03184040EA0220034A1043086016
:1007F000704700000CED00E00000FA052DE9F84319
:100800001748016841F0805101600068154F00F001
:100810008050012600903E64FFF766FF05464FF4C6
:100820007A78114C05E000BFFFF75EFF401B4045A2
:100830000DD86068C003F7D57E64FFF755FF054605
:10084000464607E0FFF750FF401BB04202D90320A5
:10085000BDE8F88360688003F4D50020F8E7000065
:100860004038024000000E42007000402DE9F04781
:100870000E46050065D0DFF81481D8F80000F7B205
:1008800000F00F00B04207D288F80070D8F80000DE
:1008900000F00F00B04254D128683D4C810712D5BA
:1008A000400703D5206840F4E05020602878000716
:1008B00003D5206840F4604020602068A96820F0DB
:1008C000F000084320602878C0072DD030496868C0
:1008D0000839012812D0022813D0032811D0096842
:1008E000890700292DDA216821F0030101432160E5
:1008F000FFF7FAFE814641F2883A0EE00968890363
:10090000EFE709688901ECE7FFF7EEFEA0EB0901CC
:10091000514502D90320BDE8F0872068696800F0DE
:100920000C00B0EB810FEFD1D8F80010404601F079
:100930000F01B14207D90770006800F00F00B04204
:1009400001D00120E7E72878400705D52068E9684D
:1009500020F4E050084320602878000706D520687E
:10096000296920F4604040EAC100206000F038F8B6
:100970002168084AC1F30311515CC8400649086068
:1009800006480068FFF7D0FE0020C4E7003C0240A4
:1009900008380240FE3D00080C0000200400002042
:1009A0000448054900680968044AC1F38221515C82
:1009B000C84070470C000020083802400E3E000876
:1009C0000448054900680968044AC1F34231515C92
:1009D000C84070470C000020083802400E3E000856
:1009E000154810B5006810F00C02144813D01449D3
:1009F000042A0FD0082A0ED10F4C241F2268236826
:100A000002F03F025B0207D52068C0F38810A0FB0C
:100A1000010106E0084610BD2168C1F38811A1FB61
:100A200000010023FFF778FC2168C1F30141491C54
:100A30004900B0FBF1F010BD083802400024F4007A
:100A400040787D012DE9F84F04006ED02078DFF862
:100A50004C93C007A9F104054AD009F104000168CC
:100A6000C1F38101012908D00068C0F38100022888
:100A70000AD1D9F80000400206D52868800337D58E
:100A800060680028E1D033E06068B0F5803F10D0A6
:100A9000B0F5A02F286810D020F480302860286896
:100AA00020F4802028606068A8B1FFF71DFE06468C
:100AB0000DE0286840F48030F4E740F4802028609E
:100AC000F7E700BFFFF710FE801B642873D8286883
:100AD0008003F7D50CE0FFF707FE064605E000BFF0
:100AE000FFF702FE801B6428F0D828688003F7D443
:100AF0002078DFF8AC8280074FF0000A3ED5A74887
:100B0000001D016811F00C0F08D00068C0F38100CF
:100B100002280BD1D9F80000400207D428688007CA
:100B200016D5E068012800D112E033E1E068B8B1E1
:100B30000120C8F80000FFF7D7FD064605E000BF1A
:100B4000FFF7D2FD801B0228C0D828688007F7D5A0
:100B50002868216920F0F80040EAC10028600DE013
:100B6000C8F800A0FFF7C0FD064604E0FFF7BCFD93
:100B7000801B02281FD828688007F7D42078000738
:100B800022D5864F87486169703771B101210160B4
:100B9000FFF7AAFD064604E0FFF7A6FD801B02282A
:100BA00009D838688007F7D50EE0C0F800A0FFF735
:100BB0009BFD064605E082E0FFF796FD801B0228BC
:100BC0007DD838688007F7D42078400768D5DFF8EB
:100BD000CCB100270BF13C0BDBF80000C0000BD4BC
:100BE000DBF8001041F08051CBF80010DBF800007A
:100BF000012700F0805000906B4E3068C00510D483
:100C0000306840F480703060FFF76EFD009005E0C2
:100C1000FFF76AFD0099401A022850D83068C005D5
:100C2000F6D55E4EA0686C3601280FD005283068D6
:100C300010D020F001003060306820F004003060F7
:100C4000A068B8B1FFF750FD00900FE0306840F0A9
:100C50000100F4E740F004003060F7E7FFF744FDDF
:100C60000099411A41F28830814266D83068800785
:100C7000F4D50EE0FFF738FD009007E0FFF734FDF4
:100C80000099411A41F28830814256D83068800775
:100C9000F4D42FB1DBF8001021F08051CBF8001014
:100CA000A069C8B33D49091D0968C1F38101022942
:100CB0004AD00228504607D0C8F8600000E03CE067
:100CC000FFF712FD04463BE04746C8F86000FFF717
:100CD0000BFD064605E000BFFFF706FD801B02285E
:100CE0002BD828688001F7D4D4E907010843A16A0A
:100CF0002E4A490802EB0141626A41EA8211084327
:100D000094F82C1040EA0161C9F8001001203866FF
:100D1000FFF7EAFC044606E03EE000BFFFF7E4FC14
:100D2000001B022809D828688001F7D534E000BFED
:100D3000FFF7DAFC001B022802D90320BDE8F88F78
:100D400028688001F4D427E00128F7D0D9F8000002
:100D5000E26900F4800191421CD1226A00F03F0157
:100D6000914217D147F6C071626A0140B1EB821F10
:100D700010D1A26A4FF0FF3300F4403103EB52026E
:100D8000B1EB024F06D194F82C1000F07060B0EB7C
:100D9000016F01D00120D1E70020CFE704380240E5
:100DA00000004742800E4742007000400000FFFFF5
:100DB00070B5040009D0606A002540B12561656105
:100DC000A56294F8510040B10CE0012070BD60684C
:100DD000B0F5827FF4D0E561F2E784F85050204608
:100DE00000F044F8022084F851002068016821F0E6
:100DF00040010160A088218900F4827001F404415F
:100E00000843A18901F400610843217C01F002013B
:100E10000843217D01F001010843218B01F4007199
:100E20000843217F01F03801084394F8201001F0B5
:100E300080010843218D01F40051084321680860B6
:100E4000A069042101EA104094F8241001F0100177
:100E50000843216848602068C16921F40061C161CC
:100E60006565012084F85100002070BD10B586B082
:100E7000044614216846FFF799FA1449206888420D
:100E800021D113480021026842F400520260006838
:100E900000F4005005900E481438026842F0100229
:100EA0000260006800F0100005904FF4E0400090F0
:100EB0000220CDE90101032003900520049069463A
:100EC0000448FFF7F1FA06B010BD000000340140FD
:100ED000443802400010024010B5401EB0F1807F3F
:100EE00001D3012010BD4FF0E02460610F21601795
:100EF00000F003FB0020A06107202061002010BD4E
:100F000070B5040004D094F83D00002510B106E04F
:100F1000012070BD84F83C50204600F023F82420C6
:100F200084F83D002068C16821F40051C16020466A
:100F300000F020FA2068016921F4904101612068E5
:100F4000416921F02A0141612068C16841F40051E2
:100F5000C1602564202084F83D0084F83E00002014
:100F600070BD000010B586B0044614216846FFF736
:100F70001DFA14492068884221D1134800210268D3
:100F800042F080420260006800F0804005900E4808
:100F90001038026842F010020260006800F0100091
:100FA00005904FF4C07000900220CDE901010320AC
:100FB00003900820049069460448FFF775FA06B0CC
:100FC00010BD000000780040403802400010024090
:100FD0002DE9F843044690F83D001F4616460D469D
:100FE00020284CD1C5B1BEB194F83C00012846D0B0
:100FF000012084F83C004FF00008C4F84080212014
:1010000084F83D00FFF770FBA6848146E684A06863
:10101000B0F5805F03D004E00120BDE8F8832069CB
:1010200028B12E465FF0000584F83C800EE00026D3
:10103000FAE78021204600F023FAA0B9AEB116F8F5
:10104000010B21684860E08C401EE084E08C4B4638
:101050004FF0000200970028EBD14FF040012046EE
:1010600000F00EFA30B10320D7E735F8020BC0F3D9
:101070000800E6E7202084F83D000020CDE70220AC
:10108000CBE7000070B50446C00704D0012251022E
:101090000D48FFF723FB0D4DA00704D501220421C5
:1010A0002846FFF71BFB600704D5012202212846D2
:1010B000FFF714FB200706D52846BDE87040012243
:1010C0001146FFF70BBB70BD001002400004024048
:1010D00070B50446C00705D000224FF400710E48D9
:1010E000FFF7FCFA0D4DA00704D500220421284685
:1010F000FFF7F4FA600704D5002202212846FFF723
:10110000EDFA200706D52846BDE8704000220121EF
:10111000FFF7E4BA70BD0000001002400004024076
:10112000F0B587B014216846FFF740F92248002443
:10113000016841F010010160016801F010010591A2
:10114000016841F080010160016801F080010591B2
:10115000016841F0020101600068184E00F00200D1
:10116000059001224FF404713046FFF7B7FA144F8F
:10117000012207213846FFF7B1FA10200125CDE9F9
:1011800000050220CDE9024069463046FFF78CF9A0
:1011900007200090CDE90154694638460394FFF7D3
:1011A00083F968020090CDE9015469463046039402
:1011B000FFF77AF907B0F0BD303802400010024066
:1011C000000402400E4810B50C4901600021416046
:1011D0008160C1604FF400720161C0E905120162D3
:1011E000416281620A21C162FFF7E2FD002803D05B
:1011F000BDE81040FFF755B910BD000000340140B4
:10120000300300200C4810B50A4901604FF46131E9
:101210004160002181600C22C160C0E9041281613B
:10122000C161FFF76DFE002803D0BDE81040FFF755
:1012300038B910BD0078004088030020FEE7FEE7C3
:10124000704701F058BF000030B593B030216846B8
:10125000FFF7ACF814210CA8FFF7A8F820480025E8
:10126000016841F080510160006800F080501190E9
:101270001C48016841F4404101600068022400F408
:1012800040401190012000904FF4A0200190600593
:10129000CDE90640192008904FF4B470CDE9090457
:1012A00004200B906846FFF7CDFB08B172B6FEE74D
:1012B000FFF7A4FA08B172B6FEE70CA90F2081E887
:1012C00031004FF4A0500F90109005210CA8FFF7AB
:1012D000CDFA002801D072B6FEE713B030BD000091
:1012E000403802400070004070B5194C2068194A1F
:1012F00010F00C01184804D0184D042903D0082917
:1013000003D002601BE0056019E01149091F0B685A
:10131000C3F380560B6803F03F0316B1B5FBF3F23D
:1013200001E0B2FBF3F20B680968C3F388135A4378
:10133000C1F30141491C4900B2FBF1F10160216890
:10134000074AC1F30311515C0268CA40026070BDD4
:10135000083802400024F4000C00002040787D0191
:10136000FE3D00080248016841F4700101607047C9
:1013700088ED00E070B5044600680169E26821F478
:101380004051114301612169A068E2690843616924
:10139000114308432168CA6849F20C639A43024327
:1013A000CA6020684169A26921F44071114341611A
:1013B00031492068884202D03049884202D1FFF783
:1013C000FFFA01E0FFF7ECFAE26900231921642536
:1013D0003226B2F5004F626828D0A0FB0101930FBE
:1013E0009200FEF799FF0146B0FBF5F06FF018028E
:1013F000504301EB800006EB0010B0FBF5F000F06D
:10140000F002B1FBF5F002EB0012B1FBF5F06FF06A
:101410001803584301EB800006EB0010B0FBF5F019
:1014200000F00F0021681044886070BDA0FB01012E
:1014300092185B41FEF770FF0146B0FBF5F0020128
:10144000B1FBF5F06FF01803584301EB800006EB99
:10145000C000B0FBF5F000F0F80002EB4002B1FB79
:10146000F5F0584301EB800006EBC000B0FBF5F04F
:1014700000F00700D6E70000001001400014014012
:101480002DE9F041984617460E460446069D27E092
:10149000681C25D02DB1FFF727F9A0EB0800A84262
:1014A0001ED920680C3050E8001F21F4D07140E8AC
:1014B0000012002AF5D12068143050E8001F21F0F6
:1014C000010140E80012002AF5D1202084F83D00F7
:1014D00084F83E00002084F83C000320BDE8F08141
:1014E0002068006836EA000004D00020B842CFD05F
:1014F0000020F3E70120F9E7FEE70907090E0028BD
:1015000004DB00F1E02080F80014704700F00F00C9
:1015100000F1E02080F8141D70470000002807D07B
:101520000E4910F0FF0F04D051FA80F00078401CF3
:10153000704710F47F4F04D0C0F30720085C0930D7
:10154000704710F47F0F04D0C0F30740085C1130DF
:10155000704701EB1060007819307047163E0008A4
:1015600002E008C8121F08C1002AFAD1704770476C
:10157000002001E001C1121F002AFBD170470000CA
:101580002DE9F04F89B092468B460646002400E0D4
:10159000641C305D202803D0092801D05C45F7D3B6
:1015A0004FF0FF387CB3194804F10609184F05685D
:1015B00011E0062217A12868FEF72BFF50B9286812
:1015C00022463146801DFEF724FF18B9296811F81C
:1015D000090020B10C3538688542EAD314E0AC68C4
:1015E0008CB120216846FEF7E1FE6A465946304636
:1015F00001F008F838B16946A047CAF80000002099
:1016000009B0BDE8F08FFFE74046F9E7A0000020F1
:10161000A40000205F5F636D645F00002DE9FC4162
:101620001F460446DDE90831DDE90A6514304060F3
:101630000060C4E90827C4E90A310A462321184694
:101640001C3401F0A9FCD4E903014218D4E90101DA
:10165000104B121F01F058FB44F81A0B002004F83D
:1016600001690D4A04F8036BE4E8020544F81059D7
:1016700001C404F83C0B01C444F8740900902346EB
:101680000190194604F1440002F04CF90020BDE835
:10169000FC8100001D3500083B37000810B5029C96
:1016A00024F001044472C0E907120021C0E90931A5
:1016B00014304060006010BD143001F0D2BB70B532
:1016C0000546FEF78FFD296F044609B12846884775
:1016D0002046BDE87040FEF789BD00001FB510220E
:1016E0000848642351018DE80F000023064A07A132
:1016F000783801F087FF0348783801F0E7FF04B03D
:10170000002010BD300100204D1C00086C65645F96
:10171000746872656164000010B51BA001F058FB8D
:101720001C4C21781CA001F053FB2078C00702D08C
:101730001FA001F04DFB2078800702D51FA001F00B
:1017400047FB2078400702D51FA001F041FB20781D
:10175000000702D520A001F03BFB2078C00602D58F
:1017600020A001F035FB2078000607D509480F308E
:101770000168BDE810401DA001F02ABBBDE8104083
:101780001EA001F025BB0000627573206661756CB8
:10179000743A0A0029ED00E05343425F4346535236
:1017A0005F424653523A30782530325820000000CC
:1017B00049425553455252200000000050524543C3
:1017C0004953455252200000494D50524543495318
:1017D0004552522000000000554E53544B45525282
:1017E0002000000053544B45525220005343422DD9
:1017F0003E424641523A253038580A000A0000005D
:1018000010B500F05DFB002010BD10B500F01CFC11
:10181000002010BD104810B5416991F821108907CA
:1018200003D40E490020087014E0016929B14FF477
:1018300000720A48FEF7D1FD0CE000F0E1FE08B1AD
:1018400007A100E008A10548FEF7DAFD08A103485A
:10185000FEF7B7FD014810BDA00000206444002041
:101860006D7368200000000066696E7368200000D8
:101870003E0000000349496911F8212F60F341023D
:101880000A707047A0000020014AC2E900017047B9
:10189000A00000207CB516491648FFF7F5FF782117
:1018A000012000F0FBFF144C6061D0B10A2115202B
:1018B000CDE900014FF480630022104910A001F02F
:1018C00008FE054600231A460FA1606901F094FC4A
:1018D0000120FFF7CFFF15B1284601F0F7FE0020E9
:1018E0007CBD0BA001F074FA4FF0FF307CBD00000E
:1018F00098420008D8410008A000002029190008DB
:10190000747368656C6C0000736872780000000086
:101910006E6F206D656D6F727920666F72207368CF
:10192000656C6C0A00000000984D686910F8211F72
:1019300041F001010170FFF76DFF01F049FA002647
:1019400001F098F80400FBD41B2C07D0686990F8CC
:101950002010012907D002290ED017E06969012063
:1019600081F82000ECE75B2C02D080F820600DE0CD
:10197000022180F82010E3E780F82060412CDFD0BE
:10198000422CDDD0442C38D0432C43D0002CD7D06F
:10199000FF2CD5D0092C4ED07F2C75D0082C73D0BD
:1019A0000D2C70D00A2CFCD0B0F87210502901D345
:1019B000A0F87260B0F87430B0F872108B427DD22B
:1019C000CA1A00F1220123301944184401F0CAFA5E
:1019D0006869B0F8741022300C54686990F82110CE
:1019E000C90706D0B0F874102230014468A001F095
:1019F000EFF96869B0F87440A5E0B0F87400002809
:101A00009ED064A001F0E4F9686930F8741F491EA3
:101A1000018095E7B0F87410B0F8722091428FD22F
:101A20002230095C5CA001F0D3F9696931F8740FC8
:101A3000401C088084E7002403E056A001F0C8F9A8
:101A4000641C6869B0F87400A042F6DC6C6953A0AD
:101A5000223401F0BDF900F0D3FD012802D1204667
:101A600000F00AFDFFF7D6FE014622464CA001F029
:101A7000AFF968692230FEF7BCFC696921F8720F82
:101A800048805DE700E03DE0B0F87420002AC0D057
:101A9000B0F87210521E491E89B293B2A0F87210AB
:101AA000A0F87430994224D9CA1A00F123012230D7
:101AB0001944184401F056FA686900E049E0B0F8AA
:101AC000721022300E546869B0F87410223001444C
:101AD00035A001F07DF96869B0F8744003E02DA0ED
:101AE00001F076F9641C6869B0F87200A04290DBDE
:101AF000F5E72FA001F06CF96869B0F87210223098
:101B00000E541DE700F07CFD01280DD1686990F8A6
:101B10002100C00702D021A001F05AF96869B0F88D
:101B20007210223000F0FEFCFFF774FE01F050F955
:101B3000686950212230FEF739FC686922E015A05F
:101B400001F046F9641C6869B0F87200A042F6DC46
:101B50000AE022300C54686990F82100C00703D0D5
:101B600021460DA001F034F96869B0F87210491CE3
:101B700089B2A0F87210B0F87420521CA0F874203A
:101B80005029BED320F8726F4680D9E6A00000200D
:101B90002573000008000000256300000A00000013
:101BA000257325730000000008257320200800001D
:101BB0000820080010B5124C2068800702D511A03B
:101BC00001F006F92068400011D50D48C01E0078CC
:101BD00008B1FFF7A1FD0A48001F007808B100F026
:101BE000DFFB0748801E008808B102F09BF82068E0
:101BF000002804DABDE8104008A001F0E9B810BDE3
:101C00002CED00E06661696C656420766563746F35
:101C1000722066657463680A00000000646562757E
:101C200067206576656E740A0000000010B502A09A
:101C300001F0CEF8002010BD48656C6C6F20525446
:101C40002D546872656164210A000000002464203C
:101C500001F0F0FC641CA4B2022C0CD0042C0CD0BB
:101C6000062C0CD0082C0CD00D2CF0D100240F2009
:101C7000FFF708FAEBE7012004E0022002E004206D
:101C800000E00820FFF724FAE1E7000070B50CA09F
:101C900001F09EF80F48104D04680BE002220FA1DE
:101CA0002068FEF7B6FB20B1D4E900120CA001F0C9
:101CB0008FF80C3428688442F0D3002070BD0000F7
:101CC0002D2D46756E6374696F6E204C6973743A7E
:101CD0000A000000A0000020A40000205F5F0000B8
:101CE000252D313673202D2D2025730A000000008C
:101CF0002DE9F04104461E4617460D46084601F000
:101D0000B9F9001D2060257200206760C4E90360F6
:101D1000BDE8F0812DE9F0410D4600212961E96817
:101D200091B1297A81B12E6888B10446FEF75AFA3A
:101D30000146A4F10C002A7A007A20F0800090423B
:101D400009D00846FEF752FA0020BDE8F08134467B
:101D5000FEF748FA0146686800272468B44201D1BA
:101D6000002404E010C0EA687F1CBA42F5D108469E
:101D7000FEF73CFA20462F61E7E700002DE9F0412D
:101D800096B000262FA408230CAA052106A8FFF769
:101D9000AFFF08208046014622462CA001F018F82B
:101DA000404600F097FC32A001F012F806A9304638
:101DB000FFF7B0FF064600253BE00CA850F8254091
:101DC0000C3CFEF70FFA0146207A9DF8202020F007
:101DD00080009042084602D0FEF708FA28E0FEF79D
:101DE00005FA606904F11407B842384613D001F0CF
:101DF0001DF8228C618C0091CDE901202346082238
:101E0000414622A000F0E4FF384601F059FF25A02A
:101E100000F0DEFF0CE001F009F8218C628CCDE9C6
:101E2000002102902346082241461FA000F0D0FF67
:101E30006D1C0A98A842C0DC002EB7D116B0002055
:101E4000BDE8F0816D61696C626F7800252D2A2EE6
:101E50007320656E7472792073697A652073757367
:101E600070656E64207468726561640A0000000029
:101E7000202D2D2D2D20202D2D2D2D202D2D2D2DC6
:101E80002D2D2D2D2D2D2D2D2D2D0A00252D2A2EDC
:101E90002A732025303464202025303464202564C2
:101EA0003A0000000A000000252D2A2E2A73202562
:101EB0003034642020253034642025640A0000007A
:101EC00010B5074C07A0E16800F082FF0AA0216965
:101ED00000F07EFF6169BDE810400CA000F078BF03
:101EE00028000020746F74616C206D656D6F7279CD
:101EF0003A2025640A00000075736564206D656DE5
:101F00006F7279203A2025640A0000006D617869BB
:101F10006D756D20616C6C6F6361746564206D65B7
:101F20006D6F72793A2025640A0000002DE9F041B6
:101F300094B000262CA408230BAA022105A8FFF7C1
:101F4000D7FE08208046014622462AA000F040FF26
:101F5000404600F0BFFB2EA000F03AFF05A9304636
:101F6000FFF7D8FE0646002535E00BA850F82540BF
:101F70000C3CFEF737F9217A9DF81C2021F08001F6
:101F8000914202D0FEF732F924E0FEF72FF96069A2
:101F900004F11407B842384611D000F047FFA18B76
:101FA000CDE900102346082241461FA000F010FF93
:101FB000384601F085FE15A000F00AFF0AE000F0A7
:101FC00035FFA18BCDE900102346082241461AA017
:101FD00000F0FEFE6D1C0998A842C6DC002EBDD1A3
:101FE00014B00020BDE8F08173656D6170686F7298
:101FF00065000000252D2A2E732076202020737581
:102000007370656E64207468726561640A00000014
:10201000202D2D2D202D2D2D2D2D2D2D2D2D2D2D0A
:102020002D2D2D0A00000000252D2A2E2A73202593
:102030003033642025643A00252D2A2E2A7320256A
:102040003033642025640A002DE9F041B4B0002645
:102050003CA408232CAA012126A8FFF749FE08204A
:10206000804601462246394800F0B2FE404600F064
:1020700031FB37A000F0ACFE26A93046FFF74AFE40
:102080000646002554E02CA850F825400C3CFEF7ED
:10209000A9F80746207A9DF8A01020F08000884219
:1020A00003D03846FEF7A2F841E07822214607A87F
:1020B000FEF763F93846FEF799F894F8350000907A
:1020C00023460822414632A000F082FE94F83400F4
:1020D00000F00F00012807D0022807D040B10428E3
:1020E00008D0032808D00AE02CA006E02EA004E0C7
:1020F00030A002E032A000E034A000F069FEA06A47
:10210000014600E0401C0278232AFBD0E26A401A14
:10211000101A64235843B0FBF2F3276B206CCDE90F
:102120000007E069081A81182BA000F051FE6D1C11
:102130002A98A842A7DC002E9ED134B00020BDE82A
:10214000F08100007468726561640000383F000827
:10215000202D2D2D20202D2D2D2D2D2D2D202D2DE3
:102160002D2D2D2D2D2D2D2D202D2D2D2D2D2D2DAC
:102170002D2D2D20202D2D2D2D2D2D20202D2D2DC3
:102180002D2D2D2D2D2D2D202D2D2D0A0000000063
:10219000252D2A2E2A7320253364200020726561A4
:1021A00064792020000000002073757370656E64F0
:1021B0000000000020696E697420202000000000EB
:1021C00020636C6F73652020000000002072756E24
:1021D0006E696E6700000000203078253038782066
:1021E000307825303878202020202530326425258D
:1021F00020202030782530387820253033640A00BC
:10220000F0B593B0002626A408230BAA0A2104A83F
:10221000FFF76EFD08272246394623A000F0D8FDBF
:10222000384600F057FA2AA000F0D2FD04A9304643
:10223000FFF770FD0646002524E00BA850F8254066
:102240000C3CFDF7CFFF217A9DF8182021F080018A
:10225000914202D0FDF7CAFF13E0FDF7C7FFD4E9B2
:102260000901CDE9000123460822394621A000F0EA
:10227000AFFD607AC00701D024A000E026A000F0E6
:10228000A7FD6D1C0898A842D7DC002ECED101F026
:10229000AFFA014624A000F09BFD13B00020F0BD72
:1022A00074696D6572000000252D2A2E7320207040
:1022B0006572696F64696320202074696D656F754C
:1022C0007420202020202020666C61670A00000016
:1022D000202D2D2D2D2D2D2D2D2D2D202D2D2D2D48
:1022E0002D2D2D2D2D2D202D2D2D2D2D2D2D2D2D2B
:1022F0002D2D0A00252D2A2E2A73203078253038DE
:1023000078203078253038782000000061637469C7
:1023100076617465640A000064656163746976615E
:102320007465640A0000000063757272656E742043
:102330007469636B3A3078253038780A0000000001
:102340000024FEF7D7F9FEF77FFFFEF7E9FEFEF760
:1023500059FFFEF737FF642001F06CF907A000F089
:1023600037FDFFF7BBF92146641CA4B206A000F0BC
:102370002FFD642001F05EF9F5E7000031323334BF
:1023800035360D0A0000000078783D25640D0A00FE
:1023900010B500F09FFABDE81040FFF7D1BF000074
:1023A00010B518A000F014FD1B4C21781BA000F004
:1023B0000FFD2078C00702D01EA000F009FD207894
:1023C000800702D51EA000F003FD2078000702D58B
:1023D0001EA000F0FDFC2078C00602D51EA000F073
:1023E000F7FC2078000607D50B480C300168BDE8E3
:1023F00010401CA000F0ECBCBDE810401D4800F0EF
:10240000E7BC00006D656D206D616E6167652066DB
:1024100061756C743A0A000028ED00E05343425F96
:10242000434653525F4D4653523A30782530325826
:10243000200000004941434356494F4C2000000012
:102440004441434356494F4C200000004D554E53E4
:10245000544B4552522000004D53544B455252208C
:10246000000000005343422D3E4D4D41523A25306D
:1024700038580A00943D00082DE9F04780460025B1
:1024800000782C4618B12248224F066831E0BDE89A
:10249000F0470021084600F077B806221EA13068F8
:1024A000FDF7B7FF20BB306800F106094046FDF795
:1024B000A0FF024649464046FDF7ABFFC0B925B92B
:1024C0004C464846FDF795FF05464946204601E043
:1024D000401C491C02781AB10B780BB19A42F7D014
:1024E000001BA84200DA054649460DA000F070FC2A
:1024F0000C3638688642D0D3002C06D02A462146B6
:102500004046BDE8F04700F045BFBDE8F087000059
:10251000A0000020A40000205F5F636D645F0000E6
:1025200025730A0038B5044601E0491E641C59B100
:1025300020782028F9D00928F7D06A462046FFF7EE
:102540001FF818B1204604E0002038BD009838BDBF
:10255000401C0178202901D00029F9D10021017007
:10256000214603A000F034FC4FF0FF3038BD0000DE
:1025700025733A20636F6D6D616E64206E6F7420F9
:10258000666F756E642E0A0070B50EA000F020FC18
:102590001348144D04680CE0062213A12068FDF7CF
:1025A00038FF28B9D4E9001211A0891D00F010FCF1
:1025B0000C3428688442EFD310A000F009FC0020FE
:1025C00070BD000052542D546872656164207368B8
:1025D000656C6C20636F6D6D616E64733A0A000008
:1025E000A0000020A40000205F5F636D645F000016
:1025F000252D313673202D2025730A000A00000096
:102600000120704770B5002315461C461A464BE062
:1026100000F8012B5B1C0678202E01D0092E01D179
:102620008B42F5D3082C11D321A000F0D1FB00265A
:1026300006E000BF55F8261025A000F0C9FB761C67
:10264000A642F7D321A000F0C3FB2FE08B422DD28E
:10265000F6B2222E03D045F82400641C1BE0401C77
:1026600045F824005B1C641C08E05C2E04D146780D
:10267000222E01D1401C5B1C401C5B1C0678222EC4
:1026800001D08B42F1D38B4210D200F8012B5B1C9E
:102690000AE0401C5B1C0678202E03D0092E01D0D6
:1026A0008B42F6D38B4201D28B42B4D3204670BD0D
:1026B000546F6F206D616E792061726773202120E5
:1026C0005765206F6E6C79205573653A0A000000DB
:1026D0002573200010B5044602E003A000F078FB4B
:1026E000641EFAD210BD00002D00000030B5134961
:1026F00043680A68134402F1080498420DD05D88CB
:102700005DB94D68AB4208D08D689D4200D18860AC
:102710005D6845605B68851A1D5183681344834278
:102720000BD05D88002D08D18D68854200D18B606B
:10273000416859604068991A015130BD2800002055
:102740002DE9F04F85B09946DDE90EA5109CAB460A
:10275000630602D5DFF814C103E0DFF810C1ACF165
:10276000110CE30601D524F00104E30701D0302366
:1027700000E0202300260493A3070BD5002A02DAE9
:102780002D26524206E0630701D52B2602E02307DF
:1027900000D520260023EE4622B930228DF80020F5
:1027A00001230CE0B9F10A0F14D002F00F0812094E
:1027B0001CF808800EF803805B1C002AF2D1AB42A3
:1027C00000DD1D46AAEB050214F0110F4FF02007A3
:1027D00008D015E00A27B2FBF7F807FB1828B2FB70
:1027E000F7F2E5E73EB1002A05DD521E03E088421C
:1027F00000D20770401CB2F1000CA2F10102F6DC1D
:1028000026B1884200D20670401C521EE40605D54F
:1028100008E0884201D2049C0470401C141EA2F1FE
:102820000102F6DC30242E466D1E9E420ADD8842EF
:1028300000D20470401CF6E7884201D2E55C0570C6
:10284000401C00E074461D1EA3F1010307DDBBF12F
:10285000000FF1D103E0884200D20770401C131E24
:10286000A2F10102F7DC05B0BDE8F08F273F0008B8
:102870001CB514210A20CDE900014FF40073002299
:10288000034904A000F025FEBDE81C4000F01EBF77
:10289000912300086D61696E0000000070B5484327
:1028A000044600F0E7FA050003D02246002100F0BC
:1028B00073FB284670BD000070B5044C044D02E067
:1028C00020688047241DAC42FAD370BDC441000883
:1028D000CC41000870B5044C044D02E020688047EC
:1028E000241DAC42FAD370BDCC410008D44100088D
:1028F00010B5FDF777FC044A5188491C5180BDE8AA
:102900001040FDF773BC00008000002010B5FDF7FB
:1029100069FC0B4C6188491E09B2618000290ADC00
:1029200000216180FDF762FC6068002807D0BDE8E7
:10293000104000F0E9BBBDE81040FDF757BC10BDEA
:102940008000002070B5002833D01A4D29688842D5
:102950002FD3696888422CD2A0F10C044FF0FF31CC
:10296000154800F080FC60884FF4F55610B12088BF
:10297000B04208D011A000F02BFA238862882146CB
:1029800015A000F025FA002060802680A868844207
:1029900000D2AC6029686068611A401A2969081A77
:1029A00028612046FFF7A2FEBDE87040024800F013
:1029B00035BC70BD2800002044410020746F2066A3
:1029C00072656520612062616420646174612062C7
:1029D0006C6F636B3A0A00006D656D3A20307825A4
:1029E0003038782C207573656420666C61673A20F6
:1029F00025642C206D6167696320636F64653A20EC
:102A00003078253034780A0000487047CC03002025
:102A100000487047CC3F002010B5FDF76BFEFEF775
:102A200013FCFEF761FC11484FF47A710068B0FBAB
:102A3000F1F0401EB0F1807F0AD24FF0E0214861F2
:102A40000B4AF02082F8140D0020886107200861ED
:102A5000FEF7D8FBFFF730FFFFF7DAFF0446FFF77A
:102A6000D3FF2146BDE8104000F0A8BC0C000020B8
:102A70000FE000E038B50B484FF0FF340068016804
:102A8000C943890602D44068C4B209E00168C94359
:102A9000090702D40168406800900A2000F0CAFDCE
:102AA000E0B238BD88030020F8B506460D200F4976
:102AB0008DF80000002481F83C40304600F062FCB4
:102AC00005460FE0305D0A2805D101231A46694604
:102AD0000648FEF77DFA012331191A460348FEF72E
:102AE00077FA641CAC42EDD3F8BD000088030020E7
:102AF00070B531490546283009682C1D11B1884749
:102B0000002857D02DA0216C00F062F92FA0616A37
:102B100000F05EF931A0A16A00F05AF933A0E16A31
:102B200000F056F935A0216B00F052F937A061682A
:102B300000F04EF939A0A16800F04AF93BA0E16825
:102B400000F046F93DA0216900F042F93FA061691B
:102B500000F03EF941A0A16900F03AF943A0E16913
:102B600000F036F945A0216A00F032F947A0616B08
:102B700000F02EF949A0A16B00F02AF94BA0E16BFF
:102B800000F026F92878400708D500F079FD0146C5
:102B90004AA000F01DF9FFF757FA02E04FA000F03D
:102BA00017F92878C00602D453A000F011F9FFF7F6
:102BB00001F8FEE770BD0000140000207073723A47
:102BC000203078253038780A000000007230303A22
:102BD000203078253038780A000000007230313A11
:102BE000203078253038780A000000007230323A00
:102BF000203078253038780A000000007230333AEF
:102C0000203078253038780A000000007230343ADD
:102C1000203078253038780A000000007230353ACC
:102C2000203078253038780A000000007230363ABB
:102C3000203078253038780A000000007230373AAA
:102C4000203078253038780A000000007230383A99
:102C5000203078253038780A000000007230393A88
:102C6000203078253038780A000000007231303A80
:102C7000203078253038780A000000007231313A6F
:102C8000203078253038780A000000007231323A5E
:102C9000203078253038780A00000000206C723A25
:102CA000203078253038780A000000002070633A20
:102CB000203078253038780A00000000686172649E
:102CC000206661756C74206F6E2074687265616433
:102CD0003A2025730D0A0D0A000000006861726435
:102CE000206661756C74206F6E2068616E646C651F
:102CF000720D0A0D0A000000465055206163746988
:102D00007665210D0A00000070B50446121D22F000
:102D1000070000220A4D443840F82250521C112A64
:102D2000FAD3416200218162C16200F13402016381
:102D300082E81A004FF080730364016070BD0000E8
:102D4000EFBEADDE10B5FDF74DFA044A1178491C0F
:102D50001170BDE81040FDF749BA000024000020C2
:102D600010B5FDF73FFA044A1178491E1170BDE80D
:102D70001040FDF73BBA0000240000202DE9F0418F
:102D8000064614460D46084600F0B6FC05F1140749
:102D9000B4B1012C18D134680EE000BF95F835109D
:102DA00094F82120A4F11400914204D23946143041
:102DB00000F035F802E02468B442EFD1B44203D108
:102DC0003946304600F02BF80020BDE8F0810000C5
:102DD0000FB440F2FF1110B503AB0548029A00F0A2
:102DE0000FFE0348FFF760FE10BC5DF814FB000007
:102DF000644100200268516002680A600160486016
:102E000070470268516002680A600160486070475C
:102E10000268516002680A60016048607047426859
:102E2000116042684A6041600860704702460021B4
:102E300000E0491C00689042FBD108467047D0E989
:102E400000124A60D0E900121160406000607047D3
:102E5000D0E900124A60D0E90012116040600060C1
:102E60007047D0E900124A60D0E90012116040605A
:102E7000006070472DE9F047002807D0374CC01C90
:102E800020F00306E068864202D90020BDE8F08702
:102E90000C2E00D20C264FF0FF31314800F0E3F940
:102EA000D4F808C02168E768ACEB0100BA1B4FE01A
:102EB0000D186B88E3BB6B681B1A0C3BB34246D3FF
:102EC0006A6806F11803121A0C3A4FF001094FF420
:102ED000F55A9A422DD383190C33CA184FF00008C3
:102EE000A2F800A0A2F80280D5F80480C2E901800F
:102EF0006B60A5F8029050680C37B84202D001F11F
:102F000008028350206930440C302061626982429B
:102F100000D26061A5F800A0654512D1A068428882
:102F20007AB1626890420CD040680844A060F6E72D
:102F30000DE0A5F8029068686A1A801A22691044A8
:102F4000E3E7074800F06AF905F10C009EE76868BE
:102F50008242ADD8024800F061F996E728000020CF
:102F60004441002010B50346994211D28C189C426E
:102F70000ED9811804E000BF14F8013D01F8013DAD
:102F8000521EF9D210BD00BF11F8014B03F8014BDE
:102F9000521EF9D210BD000010B50346CCB2042A6F
:102FA0001AD3810718D1194644EA042343EA03439C
:102FB00006E008C1103A08C141F8083B41F8043C5A
:102FC000102AF6D201E008C1121F042AFBD20B46D8
:102FD00002E000BF03F8014B521EFBD210BD2DE9E9
:102FE000F0410F46064600F045F80546C068FFF779
:102FF00041FF040019D00021EA68FFF7CDFF2672D7
:103000000020607208223946204600F0C3F9FDF71F
:10301000E9F8064604F10C01281DFFF7EBFE3046E7
:10302000FDF7E4F82046BDE8F0810020FBE770B52D
:10303000044600202072FDF7D5F8054604F10C0087
:10304000FFF7FDFE2846FDF7D1F82046BDE87040A9
:10305000FFF778BC70B5044600202072FDF7C2F877
:10306000054604F10C00FFF7EAFE2846BDE8704073
:10307000FDF7BCB8074A002102EB01131B7883421D
:1030800002D102EB01107047491C0429F4DB002037
:1030900070470000400000202DE9F041044616462C
:1030A0000D460846FFF7E6FF0746FFF721FC381DEF
:1030B000796800E009688142FCD1FFF727FC45F000
:1030C0008000207208223146204600F063F9FDF7A7
:1030D00089F8054604F10C01381DFFF78BFE2846E0
:1030E000BDE8F041FDF782B8007A000601D5012065
:1030F00070470020704710B5FFF724FE00F07EFBFC
:10310000BDE81040FFF72CBE70B5FDF76BF8114C11
:1031100005466088B0B9A068FEF700FA0E49401E67
:10312000626851F83010143991420BD020700B486E
:103130006160007801F11C01002802F11C0006D03A
:10314000FDF757F82846BDE87040FDF74FB8FDF78A
:1031500050F8F7E78000002064430020240000209E
:1031600010B50446FDF73EF8024694F834000E49C7
:1031700020F00F00401C84F8340094F8350001EB77
:10318000C00104F114004B6818604B68A3614860EB
:1031900006486161A16B836819438160BDE81040F6
:1031A0001046FDF723B80000644300208000002093
:1031B00010B50446FDF716F804F11401D1E9002317
:1031C0005360D1E900231A60A161616194F8352050
:1031D000074951F8323001EBC2018B4204D1054955
:1031E000A36B8A689A438A60BDE81040FCF7FEBF73
:1031F00064430020800000202DE9F04116460A4675
:103200001F4605460221FFF747FF05F11404AC6194
:103210006C61AE836F720020BDE8F08170B504462A
:10322000FCF7E0FF0546606904F11401884208D00C
:10323000143800F006FA2846FCF7D8FFFFF764FFC1
:1032400009E0A08B4FF6FF71884206D2401CA08394
:103250002846FCF7CBFF002070BD2846FCF7C6FFD0
:103260006FF0020070BD73B50546FCF7BBFF064664
:10327000A88B28B1401EA8833046FCF7B7FF21E099
:10328000019808B300F0FCF90446002020636A7A34
:10329000214605F11400FFF771FD0198002809DDB2
:1032A00004F1440001AA0021054600F003FB284672
:1032B00000F04CFB3046FCF799FFFFF725FF206B31
:1032C000002800D100207CBD3046FCF78FFF6FF056
:1032D00001007CBD08B509A0FFF77AFD0AA0FFF741
:1032E00077FD12A0009005230122032112A0FFF711
:1032F0006FFDBDE8084018A0FFF76ABD0A205C20FA
:103300007C202F0A000000002D205254202D202068
:10331000202020546872656164204F70657261746A
:10332000696E672053797374656D0A004A616E2077
:103330003232203230323200202F207C205C20209C
:1033400020202025642E25642E2564206275696C5A
:10335000642025730A0000002032303036202D20F2
:103360003230323020436F7079726967687420623E
:10337000792072742D746872656164207465616D62
:103380000A000000014600E0491C0A78002AFBD12F
:10339000081A704710B5002A07D0034611F8014BF0
:1033A00003F8014B2CB1521EF8D110BD03F8011BDC
:1033B00000E00021521EF9D110BD00000A46C11CD8
:1033C00010B522F0030321F00301182B20D9A3F13B
:1033D00018048C421CD3114C581A18382160E06034
:1033E0004FF4F5520A8000230C30C1E901034B80F1
:1033F0004B68194461600A8001224A8048608860F5
:10340000002307A10848FFF7F7FE2068A06010BD61
:103410000146BDE8104005A0FFF7DABC28000020F7
:103420006865617000000000444100206D656D20FA
:10343000696E69742C206572726F722062656769AB
:103440006E206164647265737320307825782C2057
:10345000616E6420656E64206164647265737320BC
:10346000307825780A00000010B50A4900230A4C7C
:103470004B80184604EBC002401C526012602028AA
:10348000F8DB1F20087003484B600C308B604060F5
:10349000006010BD800000206443002010B5074C80
:1034A000A068FEF73BF80649401E51F8300014387A
:1034B0006060BDE810401C30FCF7E1BE80000020D9
:1034C000644300200148406000607047980000207D
:1034D00070472DE9FF478946DDE90C7682460146B3
:1034E0001D4690460120FFF77AFD041E0DD02846A8
:1034F000FFF7C0FC60B103968DE8A10043464A4641
:1035000051462046FEF78AF8204604B0BDE8F08711
:103510002046FFF78CFD0020F7E7000070B5144847
:103520000468FCF75FFE05462046FEF7C8F8204613
:10353000FFF73EFE042084F8340004F1440000F05C
:10354000DDF92046FFF7D0FD01280CD004F114016D
:103550000848FFF756FC00BFFFF7D6FD2846BDE838
:103560007040FCF743BE2046FFF774FDF4E700000F
:10357000840000208C00002000F002F8FCE700002E
:103580002DE97040FCF72EFE05460F480168814288
:1035900014D00168A1F11404D1E900024260D1E91C
:1035A00000021060496009604869FFF7CBF92046C6
:1035B000FFF73DFD2846FCF719FEE3E72846BDE886
:1035C0007040FCF713BE00008C0000201FB52023C4
:1035D00008481F22D9008DE80F000023064A07A1E2
:1035E000783800F00FF804B00248BDE81040783891
:1035F00000F06CB844400020793500087469646CB0
:10360000650000002DE9FF5F92460EAA0C4692E885
:10361000E0010A46994683460121FFF73DFD8DE80A
:10362000E0014B46524621465846FDF7F7FF04B0ED
:10363000BDE8F09F10B500F0C1F8BDE8104000F003
:1036400025B870B5044690F8340000F00F00022849
:1036500002D04FF0FF3070BDFCF7C4FD054604F109
:103660001400FFF7F5FB04F1440000F0B1F928461F
:10367000FCF7BCFD2046FFF773FD002070BD000085
:10368000014800687047000084000020F1B5FCF795
:10369000A9FD05460C480468204600F02DF804F109
:1036A00044006A460021064600F004F9304600F066
:1036B0004DF92846FCF79AFDFFF726FD206B801C8C
:1036C00000D120630020F8BD8400002010B590F8E0
:1036D0003610012280F835108A400221826380F87A
:1036E0003410FFF7AEFF0348006808B1FFF70CFD88
:1036F000002010BD8400002070B5044690F834000E
:1037000000F00F00012802D04FF0FF3070BDFCF731
:1037100069FD05462046FFF74BFD94F8340020F084
:103720000F00801C84F8340004F1440000F050F9CC
:103730002846FCF75BFD002070BD10B504466FF015
:103740000100206304F11400FFF782FB2046FFF71D
:1037500007FDBDE81040FFF7D7BC000070B5FCF7CF
:1037600041FD06461348046894F8340000F00F0049
:10377000012819D1D4E90501884215D004F11400BB
:103780000546FFF765FB94F835000B4901EBC000D7
:1037900041680D6041686960456028603046FCF70B
:1037A00025FDFFF7B1FC02E03046FCF71FFD0020CD
:1037B00070BD00008400002064430020002802DA6D
:1037C0004FF0FF3070474FF47A7190FBF1F290FBAD
:1037D000F1F301FB130000EB40034A43C3EBC010BD
:1037E0004B1E03EBC00090FBF1F01044704700004B
:1037F000014800687047000010000020094810B51B
:103800000168491C0160FFF73BFF016C491E016420
:1038100003D1C16B0164FFF7A1FFBDE8104000F0C8
:1038200003B80000100000202DE9FC41CDF804D0C1
:10383000CDF800D0FFF7DCFF0646FCF7D3FC0746C7
:103840001B4D2DE060696FF00041301A143C884236
:1038500029D22046FDF730FF607A810702D420F09C
:103860000100607204F1140188466846FFF7D0FA3F
:10387000D4E907108847FFF7BBFF06460098694662
:1038800088420DD04046FFF7ECFA607A810707D5F1
:10389000C10705D020F001006072204600F056F804
:1038A0002C68AC42CED13846FCF7A0FCBDE8FC81C8
:1038B0009800002070B515460E460446FCF792FCB1
:1038C000052E17D2DFE806F00503080C1100616A27
:1038D0000FE0296861620DE0617A21F0020102E0E7
:1038E000617A41F00201617204E0617AC90700D097
:1038F00001212960FCF77AFC002070BD70B50446F8
:10390000FCF770FC05462046FDF7D6FE607A20F0F5
:10391000010060722846FCF769FC2046FFF79AFB1D
:10392000002070BD2DE9F8439046DDE908450A46C0
:103930001F4606460A21FFF7AFFB23463A4641469B
:1039400030460095FDF7AAFEBDE8F8832DE9F8435F
:103950000446FCF747FC80462046FDF7ADFE607A42
:1039600020F001006072FFF743FF616A174A4318B5
:10397000A3620020009202EBC002694656686FF015
:1039800000475DF820200AE01268A2EBC0056D69CF
:103990009D4202D0ED1ABD4203D341F82020B2422D
:1039A000F2D10A48001F0168491C016004F11401AA
:1039B0000098FFF72DFA607A40F0010060724046EF
:1039C000FCF714FC0020BDE8F883000098000020FC
:1039D00070B50446407AC0070ED0FCF703FC0546DC
:1039E0002046FDF769FE607A20F0010060722846EB
:1039F000FCF7FCFB002070BD4FF0FF3070BD0000F5
:103A00002DE9FF4F8946044600EB090783B0804645
:103A10004FF0FF3A4FF0200BA74202D25746C8F1B1
:103A2000FF390BE1252803D0BC4200D2207080E092
:103A300000260599491C059108782D2811D02B28BE
:103A400012D0202813D0232814D0302815D00A787B
:103A50005546303A0A2A13D205A800F049F905461E
:103A60001AE046F01006E4E746F00406E1E746F007
:103A70000806DEE746F02006DBE746F00106D8E759
:103A80002A2809D10698491C059120C80690002DC6
:103A900002DA6D4246F010060598D44601782E29C8
:103AA00018D1401C05900178A1F130020A2A04D2F5
:103AB00005A800F01DF9844607E02A2908D1401C1A
:103AC0000590069850F804CB0690BCF1000F01DA7F
:103AD0004FF0000C059A00201178682901D06C295C
:103AE00002D1521C0846059211780A236F2974D01E
:103AF0000CDC63291FD004DC25296FD058290DD197
:103B000084E0642901D0692908D183E0702966D056
:103B100073292CD075297FD0782979D0BC4201D265
:103B2000252020700598641C0178E9B3BC4200D2BE
:103B30002170641C7FE0F00608D458466D1E002DED
:103B400004DDBC4200D22070641CF7E70698BC423A
:103B500010F8041B069000D22170584602E0BC42C7
:103B600000D22070641C6D1E002DF8DC63E0069806
:103B700002C8069001B941A1002000E0401CA84203
:103B800002D00A5C002AF9D1BCF1000F02DD6045C9
:103B900000DD6046F2060BD45A462B466D1E83426A
:103BA00006DDBC4202D200E054E02270641CF4E75F
:103BB000002206E0BC4201D20B782370491C521C43
:103BC000641C8242F6DB5A4629466D1E814232DD74
:103BD000BC4200D22270641CF6E715E010E0681CBD
:103BE00002D1082546F00106CDE9005C0698029650
:103BF000102304C806903946204619E00CE007E07F
:103C0000BC4296D2252011E7082305E046F0400685
:103C1000102301E046F002066C2801D068281CD071
:103C2000069804C80690CDE9005C39462046029605
:103C3000FEF786FD04460598401C0590059800781F
:103C400000287FF4EFAEB9F1000F11D0BC420DD2C5
:103C500020700DE0401E0590EDE7069830F8041B3B
:103C600006908AB2B007DED512B2DCE707F8010C85
:103C700007B0A4EB0800BDE8F08F0000284E554CBB
:103C80004C2900000020704700207047002070473A
:103C90000020704710B5FCF7A5FAFEF7BDFEFFF750
:103CA00019FBFFF70FFCFFF7DFFBFEF7E1FDFFF766
:103CB0000FFCFFF78BFCFFF7F1FB002010BD0000AD
:103CC00070B5054604680BE0A4F1140106A0FFF7E7
:103CD0007FF82068A84202D004A0FFF779F8246892
:103CE000AC42F1D170BD0000257300002F00000030
:103CF00010B5014600206FF02F0307E0541C0C6044
:103D0000127800EB800003EB400010440A6814783E
:103D1000303C0A2CF2D310BD10B5FDF773FA002029
:103D200010BD000010B518A0FFF752F81A4C2188FA
:103D30001AA0FFF74DF82088C00702D01DA0FFF79A
:103D400047F82088800702D51DA0FFF741F820889A
:103D5000400702D51DA0FFF73BF82088000702D5D9
:103D60001CA0FFF735F82088C00502D51BA0FFF77F
:103D70002FF82088800502D51BA0FFF729F8BDE8A1
:103D8000104004A0FFF724B8757361676520666171
:103D9000756C743A0A0000002AED00E05343425F5C
:103DA000434653525F554653523A30782530325885
:103DB00020000000554E444546494E5354522000C1
:103DC000494E56535441544520000000494E565028
:103DD000432000004E4F435020000000554E414C00
:103DE00049474E454420000044495642595A4552DD
:103DF0004F20000010B5FFF76DFA002010BD000045
:103E0000000000000000010203040607080900008A
:103E10000000010203040000010002000100030091
:103E20000100020001000400010002000100030083
:103E30000100020001000500010002000100030072
:103E40000100020001000400010002000100030063
:103E50000100020001000600010002000100030051
:103E60000100020001000400010002000100030043
:103E70000100020001000500010002000100030032
:103E80000100020001000400010002000100030023
:103E90000100020001000700010002000100030010
:103EA0000100020001000400010002000100030003
:103EB00001000200010005000100020001000300F2
:103EC00001000200010004000100020001000300E3
:103ED00001000200010006000100020001000300D1
:103EE00001000200010004000100020001000300C3
:103EF00001000200010005000100020001000300B2
:103F000001000200010004000100020001000300A2
:103F10000100020001003031323334353637383990
:103F20006162636465660030313233343536373868
:103F30003941424344454600252D2A2E7320707294
:103F400069202073746174757320202020202073F1
:103F5000702020202020737461636B2073697A6560
:103F6000206D61782075736564206C6566742074BB
:103F700069636B20206572726F720A006C697374DA
:103F80005F6D656D006C697374206D656D6F72791E
:103F900020757361676520696E666F726D61746903
:103FA0006F6E0068656C6C6F007361792068656C7A
:103FB0006C6F20776F726C640076657273696F6ED8
:103FC0000073686F772052542D54687265616420C5
:103FD00076657273696F6E20696E666F726D61745B
:103FE000696F6E005F5F636D645F76657273696FA2
:103FF0006E0073686F772052542D54687265616447
:104000002076657273696F6E20696E666F726D617E
:1040100074696F6E006C6973745F74687265616453
:10402000006C69737420746872656164005F5F631B
:104030006D645F6C6973745F746872656164006C51
:1040400069737420746872656164006C6973745F6D
:1040500073656D006C6973742073656D6170686F52
:10406000726520696E2073797374656D005F5F639C
:104070006D645F6C6973745F73656D006C697374F4
:104080002073656D6170686F726520696E20737949
:104090007374656D006C6973745F6D61696C626FD8
:1040A00078006C697374206D61696C20626F782090
:1040B000696E2073797374656D005F5F636D645F13
:1040C0006C6973745F6D61696C626F78006C6973A1
:1040D00074206D61696C20626F7820696E2073793D
:1040E0007374656D006C6973745F74696D657200DB
:1040F0006C6973742074696D657220696E207379C0
:104100007374656D005F5F636D645F6C6973745F8A
:1041100074696D6572006C6973742074696D657281
:1041200020696E2073797374656D006C6973740017
:104130006C69737420616C6C2073796D626F6C2094
:10414000696E2073797374656D005F5F636D645F82
:1041500068656C700052542D5468726561642073F8
:1041600068656C6C2068656C702E005F5F636D64C1
:104170005F7073004C697374207468726561647356
:1041800020696E207468652073797374656D2E00E4
:104190005F5F636D645F667265650053686F77206B
:1041A000746865206D656D6F7279207573616765E0
:1041B00020696E207468652073797374656D2E00B4
:1041C000913C0008893C0008193D0008853C000826
:1041D000951800088D3C00087C3F0008853F0008CA
:1041E000C11E0008A33F0008A93F00082D1C0008BD
:1041F000B93F0008C13F0008F53D0008E43F000852
:10420000F23F0008F53D0008154000082140000875
:10421000492000082D4000083F40000849200008C0
:104220004B400008544000082D1F00086D40000856
:104230007C4000082D1F000895400008A24000089F
:104240007D1D0008BA400008CD4000087D1D000813
:10425000E5400008F0400008012200080541000880
:1042600016410008012200082B41000830410008D7
:104270008D1C00084A4100085541000889250008A6
:104280006B410008744100080B18000890410008B9
:104290009B41000801180008B842000800000020F7
:1042A000B80000006015000870430008B800002046
:1042B000B05500007015000801000000100000005B
:1042C000000000000024F4000000000000000000D6
:1042D00000000000000000000000000000000000DE
:1042E00000000000000000000000000000000000CE
:1042F0000000000000000000010000004400002059
:10430000440000207800000002000000540000205B
:104310005400002020000000050000006400002080
:1043200064000020300000000A000000740000203B
:10433000740000202C0000000000000000000000BD
:10434000000000000000000000000000000000006D
:10435000000000000000000000000000000000005D
:10436000000000000000000000000000000000004D
:04000005080001AD41
:00000001FF
